:100000006F00B03113000000130000001300000067
:100010001300000013000000130000001300000094
:100020001300000013000000130000001300000084
:08003000130000007300100032
:100038000000000000000000EE060000F2060000CC
:1000480000000000B20A00000000000000000000EC
:10005800B40A0000B60A000000000000000000001A
:10006800B80A000000000000BA0A00000000000002
:10007800BC0A0000BE0A0000C00A0000C20A000054
:10008800C40A0000C60A0000C80A0000CA0A000024
:10009800CC0A0000CE0A0000D00A0000D20A0000F4
:1000A800D40A0000D60A0000D80A0000DA0A0000C4
:1000B800DC0A0000DE0A0000E00A0000E20A000094
:1000C800E40A0000E60A0000E80A0000EA0A000064
:1000D800EC0A0000EE0A0000F00A0000F20A000034
:1000E800F40A0000F60A0000F80A0000FA0A000004
:1000F800FC0A0000FE0A0000000B0000020B0000D2
:10010800040B0000060B0000080B00000A0B00009F
:100118000C0B00000E0B0000100B0000120B00006F
:10012800140B0000160B0000180B00000000000064
:080138000000000000000000BF
:10014000397101436EC619A0397141536AC866CA34
:1001500062CC5ECE19A0397101535AD056D252D416
:100160004ED64AD826DA22DC06DE3301614082828E
:1001700041114AC026C222C406C68282B24D410144
:10018000024D924C224CB24B4101024B924A224A00
:10019000B2494101024992442244B2404101828065
:1001A0003D432A876373C3029377F700BDEFADE544
:1001B000937606FF3D8ABA960CC34CC30CC74CC756
:1001C0004107E36BD7FE11E28280B306C3408A0683
:1001D0009702000096966780A6002307B700A30643
:1001E000B7002306B700A305B7002305B700A30493
:1001F000B7002304B700A303B7002303B700A3028B
:10020000B7002302B700A301B7002301B700A30082
:10021000B7002300B700828093F5F50F9396850011
:10022000D58D93960501D58D61B7939627009702DA
:10023000000096968682E78086FA9680C1171D8F09
:100240003E96E374C3F8A5B7EFF29FF2011185451E
:10025000254502C202C402C602C802CA02CC02CEAE
:10026000EF00504D854537052000EF00904E3714C4
:1002700001409307000471498D444C00130504C0EC
:100280007C824AC626C4EF009012930700084C00F7
:10029000130504C07C824AC626C4EF005011D16702
:1002A000938707883EC8B70700403ECAB7070004D7
:1002B0003754004089073ECC0C0891671305044071
:1002C000FC86EF00901F130504408545EF00102EBB
:1002D000854513050440EF003032056165BDEFF23E
:1002E0009FE7B75400402A842E8AB289B68A1389C0
:1002F0000440B70502004A85EF0070347DF913858C
:1003000004408545B704030037590040EF00902BA7
:100310008504130B0940A6855A85EF00F03065DD92
:1003200093151400014693F5E50F13050940B70432
:10033000070037540040EF00102E93842408130464
:100340000440A6852285EF00302E65DD37090010B8
:10035000B7540040014413090908938404401DE880
:10036000D2852685EF00F02A0544E3DA89FE3704BA
:100370000700B75400401304440813890440A285C1
:100380004A85EF00702A65DD854513850440EF003E
:100390001025E5BBCA852685EF00702A11C9B387F1
:1003A0008A0083C5F7FF26850504EF00902675BFF8
:1003B0002945EF00B04C55BFEFF29FDB9307F5FFE7
:1003C00093F7F70F1D4741112A846373F700AD4778
:1003D0009306F10005469305D00F13054007DC870F
:1003E000FD3D238C8180410175B3EFF27FD803C7B7
:1003F00081814111CC87A5472A846304F7002545F4
:10040000653F9306F1000546A28513054007C13DEF
:10041000410149B3EFF2DFD52545793F81452945B3
:10042000E9372945EF00F048854529457D3F3715D7
:1004300001400546C14513050580EF007006814562
:1004400001456537814519454D37A9B39305F5FF3A
:1004500093F5F50F9D4763E7B700EFF27FD10545B0
:1004600069370DBB8280EFF2BFD04111FD5702C446
:1004700002C65C83A303010013044002353F9304CA
:10048000400BA28521043400214613054007137454
:10049000F40FB135E31794FE0144C9449375F40F8A
:1004A0009306610005461305400705040D3DE3175B
:1004B00094FE494493044002A2850504930671000A
:1004C0000546130540071374F40F113DE31694FE1F
:1004D00003C5818111C1CD3541016DB9EFF2BFC7AF
:1004E00003C78181AA89AE84138981816303A70030
:1004F000E13513044002130A400BA2852104A686AD
:100500002146130540071374F40FD13BA104E316F1
:1005100044FF0345090063033501793DBDB1096618
:100520009387C182814601471306465A9305000806
:100530003305D60008219AA385062A9742074183EE
:100540008907E397B6FE82801147AA876368A702EE
:10055000130730067D556364B70213058025B38702
:10056000A702370500201305C51AAA97BE9585670F
:1005700090A1BE95238CD5BA014582807D5582809D
:10058000EFF21FBF83C791814111AA84368491E79E
:1005900032C62EC469373246A24589679387475AC7
:1005A000A6978823096F86049387C182B708002025
:1005B0000563A28E014E130F4F3ABE949388C81A5A
:1005C000854F93027025130383BB95439377FE0FEA
:1005D00063E5A7002295410175BE9A20B307CF01BC
:1005E00033881E01BA97038907000147B397EF00CC
:1005F000B377F900E207E18763E5D203AE8691E3C2
:1006000081462300D800B28691E38146B307680093
:1006100094A3050713088825E31A77FC050E850EB9
:1006200075B77D554DBFEFF21FB30969AE89328AA8
:100630003684AA841309495A0385040019E12285E6
:10064000A9B6A2865286CE85253F838704008504FD
:10065000CA979C2385073E9442044180F1BF9307CB
:10066000F5FF93F7F70F1D476360F7081307A02402
:10067000FD57636CB706EFF2BFAFB70700200967FD
:100680009387C71A1307476285687571BE95130370
:100690006704938888BB394E2E868146B307D700FE
:1006A00003C807008506935738009207137878002F
:1006B000C29713080109C29703480600238807F769
:1006C00033081601034808000506238C07F7E39753
:1006D000C6FD390793858525E31067FC8A85FD3BB8
:1006E00081473E8549617DB4FD573E858280730018
:1006F000203001A0EFF23FA6011185453145B71426
:10070000014002C402C602C802CA02CC02CEEF00F7
:10071000700241440D49930900022C0013850480A6
:100720002314310122C84AC659212C0013850480A4
:10073000608422C84AC6A5294C08138504C0231A20
:10074000310122CE4ACCA521056181B4EFF2BFA0D0
:100750000945EF00E071D924EF00B00F7165130572
:100760000520EF007018B707002083A5070837257C
:1007700000001305C566EF00B0222D21AA8537259C
:1007800000001305C567EF00B021372500001305F1
:10079000C568EF003032B93F3714014013050480BB
:1007A000054693050002ED290146C1451305048065
:1007B000C5291305803EEF00D00F37250000130533
:1007C000056AEF00302F4934B13105454131054507
:1007D00059390144394A954A81441379F40F93F900
:1007E000F40F814613062003CE854A85B13B81452F
:1007F0000545B5350545EF00D00B81460146CE8550
:100800004A8585049133E39C44FD0504E31654FDB9
:1008100001449549394A81441379F40F9306200322
:100820000146CA8513F5F40F053381450545053D9D
:1008300005458504EF00F007E39234FF0504E31C4F
:1008400044FD81461306200395450D45F539814643
:100850001306200399450945C5398146130620032F
:1008600099450D45D531814613062003994511451B
:10087000E1398146130620039D450D45F13193066C
:10088000200313068002994505457D399306200310
:10089000130680029D45054545399306200313063E
:1008A0008002A14505454D319306200313068002C1
:1008B000A545094551399306200313068002A14539
:1008C0000D45593137250000B946014693054006CC
:1008D0001305056B893B9316050137250000C1827E
:1008E0001306400681451305856C353B93160501BB
:1008F00037250000C182130620039305200313054A
:10090000056E15339314050181450545893B130593
:10091000401FC180EF00E079014463139404371550
:100920000140014413090580930405C01305803E6E
:10093000EF002078137634007D16133626009305D9
:1009400000024A85B12E1356140013461600058A7C
:100950009305000226850504A1261374F40FF9B748
:10096000A2850545ED39050429454204EF00607470
:10097000418065B7B71702409843B706FFF8136781
:10098000170098C3D843758FD8C39843B706F7FEAE
:10099000FD16758F98C39843B706FCFFFD16758F3B
:1009A00098C3D843B70681FFFD16758FD8C33707A4
:1009B0009F0098C7B746024003A706801367070148
:1009C00023A0E680D843B706C1FFFD16D8C3D8439D
:1009D000D8C3D84313670740D8C3D843758FD8C34B
:1009E000D843B7061000558FD8C39843B706000107
:1009F000558F98C3984393166700E3DD06FED843EE
:100A0000B7160240719BD8C3D84313672700D8C3D9
:100A10002147DC42B18BE39EE7FE8280B71602409D
:100A2000DC42370700201146B18B130707086385A6
:100A3000C70021466388C702B7177A00938707204B
:100A40001CC3B7170240DC43918393F6F700B70746
:100A5000002093870700B69794231C43B3D7D70091
:100A60001CC38280DC42D4424166C983BD8BF18EB7
:100A7000890745466393C700C94781EEB7460240E0
:100A800083A60680C18A89CEB7167A00938606208F
:100A900021A8B7160240D4421396E600E35606FE9C
:100AA000B7163D0093860690B387D70251BF01A0C9
:100AB00001A001A001A001A001A001A001A001A02E
:100AC00001A001A001A001A001A001A001A001A01E
:100AD00001A001A001A001A001A001A001A001A00E
:100AE00001A001A001A001A001A001A001A001A0FE
:100AF00001A001A001A001A001A001A001A001A0EE
:100B000001A001A001A001A001A001A001A001A0DD
:100B100001A001A001A001A001A0970100209381E4
:100B200061D6172100201301E1CD17250000130520
:100B300065C797F5FF1F9385E54C1386818163FA9E
:100B4000C5008322050023A0550011059105E3EAA5
:100B5000C5FE13858181971500209385A5DC6377F9
:100B6000B500232005001105E36DB5FEFD4273902D
:100B700002BC8D42739042809302800873A00230C1
:100B800097F2FFFF9382824B93E2320073905230D0
:100B9000EFF05FDE97020000938282BB7390123405
:100BA00073002030B7F7FF1F03A5477082809C4574
:100BB00013F7070113F8F70001C7D8413368E800BD
:100BC00037270240145B3707000F758F4DEB8546C2
:100BD000238DD180371701406315E5009A213583B5
:100BE0009AA18E2113F7F50F39C318418146854E1E
:100BF0003D4F930F800293028004214E3396DE0016
:100C0000B3F8C500631116039398260033131F0130
:100C10001343F3FF3377E300B318180133E7E80019
:100C20006397F70750C98506E39AC6FD18C11307F5
:100C3000F00F6375B70454412146854E3D4F930F25
:100C4000800293028004414EB398CE0033F7150121
:100C50006392E8021317260001173313EF001343C2
:100C6000F3FFB376D3003317E800D98E6395F7030B
:100C7000232A15010506E319C6FD54C182803717E2
:100C80000140E310E5F603C7A18121DF81BFE39CAA
:100C900057F810C949BFE39F57FC23281501D9BF56
:100CA000B71701406316F50083C7A18191C3B581D1
:100CB00019C20CC982804CC98280EFF26FCB797166
:100CC0002A84462168082EC67D22925737470F0096
:100CD0001307072433D7E702C204C18093F404FC4E
:100CE000C204C180B24561651305056A1316070188
:100CF0004182D18C46A01620C206C182F99AC20652
:100D0000C18216A094416369D5048606B3D7D70281
:100D10009146139707014183BA876373D7009147C0
:100D200005064206C2074182C18312B05EAC1E2096
:100D3000DA21B62593E717001EA01E20558FC207A3
:100D4000C18393F757BFD98F1EA09A25DE25D98F6F
:100D50001EA445616FF00FC4EA2131667D16631D44
:100D6000C5020D46B386C602B3D7D702C207C183F8
:100D70009396470199E293E71700A166D58F9306F2
:100D8000C0123307D7029306803E3347D7020507C8
:100D9000420741831AB059BF6546B386C602B3D72E
:100DA000D7029166C207C183D58FD9B71E2189C5E5
:100DB00093E717001EA18280C207C183F99BC20777
:100DC000C183CDBF1E2189C593E707101EA1828074
:100DD000C207C18393F7F7EFC207C183C5BF1E21C6
:100DE00089C593E707201EA18280C207C18393F7BC
:100DF000F7DFC207C183C5BF1E2189C593E707403E
:100E00001EA18280C207C18393F7F7BFC207C183C7
:100E1000C5BF0EA9828093F7E50F19C293E71500AD
:100E2000C207C1831EA982805E290A2D42055D8DFD
:100E30006D8D220521810D8D1335150082804111A4
:100E400002C402C693D7C5012AC63EC4A247A20562
:100E5000A18199CBB247D1073EC6B2478843410131
:100E60006D8D3335A0008280B247C181E107EDB7B7
:100E700023AEA1808280371702405C439146B18B3C
:100E80006385D700A1466382D706B7177A00938798
:100E900007201CC1371602405C42370700201307A9
:100EA00007019183BD8BBA9794231C41B3D7D70018
:100EB0005CC15442A1829D8ABA969422B3D6D700CF
:100EC00014C55442AD829D8A36971823B3D7E700E4
:100ED0005CC5584239839376370013874180369733
:100EE0001823B3D7E7021CC982805C435843C1660C
:100EF000C983BD8B758F8907C5466393D700C947E2
:100F000001EF3747024003270780418B09CF37178E
:100F10007A001307072021A8371702405843931679
:100F2000E700E3D606FE37173D0013070790B387A7
:100F3000E70285B799C5371702401C4F5D8D08CF72
:100F40008280B7170240984F1345F5FF798D88CFFF
:100F5000828099C5371702405C4F5D8D48CF8280F3
:100F6000B7170240D84F1345F5FF798DC8CF82805F
:100F7000EFF20FA01629F577FD17F58FF621DA2588
:100F80007971D58F1EA95625FD779387379FF58FE9
:100F9000D6212A842EC6D58F9625D58FB625D58FF6
:100FA0005EA55E29C207C18393F7F7CFD98F5EA9EB
:100FB0006808D135B747014093870780B245631A67
:100FC000F404A25756246547B387E702C206C186D8
:100FD000984163D20604060752244206B3D7E702BB
:100FE000130740064186B3D6E702B3F7E70292063D
:100FF000635506028E0793872703B3D7E70213F7DB
:101000007700B367D700C207C1831EA445616FF0A4
:101010006F98925745BF0A07C1B792079387270376
:10102000B3D7E702BD8BD58FF9BF91C55E250967A0
:10103000D98F5EA582805A25F977FD17F98FD5BF24
:1010400093F5F51F4EA182800A216D8D3335A000E6
:101050008280B707002083A7070837177A00130795
:101060000720B3D7E70293F7F70F2381F182130725
:10107000803EB387E7022390F1828280B7F700E0D9
:10108000D8438146799BD8C303C721823306A70280
:1010900090CBD4CB98431367070198C39843136749
:1010A000170298C3D843058B75DF9843799B98C383
:1010B0008280B7F700E0D8438146799BD8C303D735
:1010C00001823306A70290CBD4CB98431367070164
:1010D00098C398431367170298C3D843058B75DFED
:1010E0009843799B98C38280EFF28F882A84116598
:1010F0000111854511053D3D930700207C82371580
:1011000001408D473EC44C00E147130505803EC6B3
:10111000EFF0FFA922C837440140B70708000C08C8
:10112000130504803ECC02CA231E0100913585457B
:1011300013050480DD3D05616FF0CF85EFF2AF81CF
:10114000B7440140AE8932890144938404806345E9
:1011500024014A856FF06F83930500042685ED35E1
:1011600065DDB38789008385070026850504C205F0
:10117000C181F935E9BF138781801C43B726002060
:10118000938606923E95636BD500B7260020938622
:10119000060063E5A60008C33E858280FD57EDBFCB
:1011A00039713EDA2ED232D436D63AD842DC46DE17
:1011B0009387C18022CC804326CA06CEAA8409C464
:1011C0001C4C99E32285ED290C4454102686228577
:1011D00036C6EF007012F2406244D2442161828030
:1011E000011126CA4AC806CE22CC4EC652C4AA84D1
:1011F0002E8901C51C4D91E3E1219C4C804499E36B
:1012000026857D299717000093870752631BF402F8
:10121000C0405E24A18BB1C71C48A1C7FD59294A13
:101220001C4483450900FD17B1E91CC463DD0706B2
:101230002286A94526856120FD576308F5022945C8
:1012400035A097170000938727506314F40080445B
:10125000C9B7971700009387274BE31CF4FAC044E3
:101260004DBFA2852685112A55D97D55F24062448D
:10127000D2444249B249224A056182801CC4050910
:1012800063D70700184C63CAE700638845011C4018
:101290001387170018C08CA361B722862685052006
:1012A000E31035F9D9B71C401387170018C0294738
:1012B00098A371B79387C180AA85884315B7011198
:1012C00022CC26CA4AC806CE4EC6AA842E893284AB
:1012D00001C51C4D91E3ED26971700009387C74485
:1012E0006317F406C0401C4C1CC45E24A18BC1C310
:1012F0001C48B5CF1C4808409379F90F1379F90FB2
:101300001D8D5C486346F500A2852685692C25E580
:101310001C440505FD171CC41C401387170018C08A
:10132000238037015C486388A7005E24858B81CBCE
:10133000A9476316F900A2852685B5240DEDF24074
:1013400062444A85D2444249B24905618280971776
:1013500000009387673F6314F400804469B79717D0
:1013600000009387673AE310F4F8C044ADBFA2854C
:101370002685212041D17D59D9B741119387C1805C
:1013800026C2844322C44AC006C62A892E8489C440
:101390009C4C99E326852D26971700009387C73824
:1013A000631BF402C0400317C40093170701C183F5
:1013B00093F68700ADEA93F6070195EEA547232043
:1013C000F900136707045AA47D55B24022449244A1
:1013D000024941018280971700009387E736631422
:1013E000F4008044C9B7971700009387E731E31CE6
:1013F000F4FAC0444DBF918B9DC34C5889C99307E3
:1014000044046384F5004A853123232A04025E24C0
:101410002322040093F7B7FD5EA41C481CC05E2481
:1014200093E787005EA41C4899EB5E241307002015
:1014300093F707286385E700A2854A85A1215E24EA
:1014400013F717001DC35C4823240400B307F040C2
:101450001CCC1C480145B5FB8317C40013F70708D3
:101460002DD793E707045EA485B7898B014791E3E5
:10147000584818C4F9BFDE25011122CC26CA06CE71
:101480004AC84EC613F78700AA842E8479EBD84148
:10149000634DE000B841634AE0000145F240624418
:1014A000D2444249B2490561828058547DD703A98C
:1014B00004009396370123A0040063DB06067048FE
:1014C0005E24918B99C75C401D8E5C5899C33C404B
:1014D0001D8E5C540C50814626858297FD575A24F8
:1014E000631DF5009440F54763E8D706B707402031
:1014F0008507B3D7D700858BA5C31C4823220400DA
:101500001CC09317370163D80700FD576314F5001B
:101510009C4091E368C84C5823A02401BDDD93078B
:1015200044046384F5002685F526232A0402B5B712
:101530000C500146854626850297FD572A86E31101
:10154000F5F89C40B5DF75476385E700594763931D
:10155000E70423A0240191B7136707045AA47D551B
:1015600035BF83A90501E38A09F203A905008D8B24
:1015700023A0350133093941014791E3D84918C403
:10158000E35D20F11C540C50CA864E862685829756
:101590006347A0005E2493E707045EA4C9B7AA9935
:1015A0003309A940F1BF9C49B9CF011122CC06CE25
:1015B0002A8411C51C4D81E72EC61922B245971702
:1015C000000093876716639BF5004C408397C50026
:1015D00095C722856244F240056171BD97170000EE
:1015E000938787166394F5000C44CDB797170000D6
:1015F00093878711E39CF5FC4C44C9BFF2406244D9
:1016000001450561828001458280411122C406C6E0
:101610002A844EA572A52320050023220500232439
:1016200005002322050623280500232A0500232C74
:101630000500214681451305C505EFE07FB69717E4
:1016400000009387E7B15CD097170000938707B439
:101650001CD4971700009387E7B75CD49717000056
:10166000938747BA00D01CD8B240224441018280FF
:1016700097050000938565F3A9A2411126C21306C0
:1016800080069384F5FFB384C4024AC02E8922C425
:1016900006C6938544071D262A8401CD2320050014
:1016A00023222501310508C4138684068145EFE015
:1016B0003FAF2285B24022449244024941018280D8
:1016C0001C4DADE3411106C622C497070000938765
:1016D00067FA1CD5938701819C43232405042326A4
:1016E0000504232805046314F50085471CCD2A84CE
:1016F0001D2848C02285052808C422852D2048C4FD
:10170000484001469145113708440546A545F53D39
:1017100048440946C945D53D85471CCCB2402244C2
:1017200041018280828041119387018126C28443D6
:101730004AC006C69C4C22C42A8999E326854937AB
:10174000938484048044DC40FD1763D607009C40EA
:10175000B9CF8440C5BF0317C40039E7C1778507F7
:10176000232204062320040023220400232404004F
:101770005CC423280400232A0400232C04002146EF
:1017800081451305C405EFE0BFA1232A0402232CE1
:10179000040223240404232604042285B2402244A4
:1017A00092440249410182801304840671BF91452D
:1017B0004A85E13588C051FDB1472320F900014435
:1017C000E9BF797122D44AD052CC56CA5AC85EC6F3
:1017D00006D626D24ECE2A8AAE8A13048504014943
:1017E000054BFD5B09ECB25022544A8592540259D4
:1017F000F249624AD24A424BB24B4561828004446C
:1018000083294400FD1963D409000040E1BFDE24B0
:10181000637BFB008397E40063877701A68552858D
:10182000829A3369A90093848406E9BF1971A6DA04
:10183000AE848395E500A2DC86DE328463DB05009E
:10184000DE2423A0060093F7070885E793070040EE
:101850001DA0300836C6EF007021B246E34205FEF7
:101860007247BD67F98F7977BA9793B717009CC213
:10187000F1BF930700041CC0F6506654D6540145CE
:1018800009618280DE25011122CC06CE26CA4AC813
:10189000898B2E8489CF930774041CC01CC885478C
:1018A0005CC8F2406244D2444249056182807400BF
:1018B0003000AA84A53FA2452A892685012219E97C
:1018C0008317C40013F7072069FFF19B93E72700F4
:1018D0005EA4D1B7970700009387C7D99CD45E2434
:1018E00008C008C893E707085EA4A2475CC8B247CF
:1018F00081CF8315E4002685EF00701A11C55E24A0
:10190000F19B93E717005EA45E243369F900231668
:10191000240141BFDDC183A7C5FF411122C406C612
:1019200026C21384C5FF63D307003E94AA84EF0048
:10193000D01E938741829C4381EF2322040023A27F
:1019400081822244B2402685924441016F00101DDD
:10195000637EF40014403307D4006396E700984395
:10196000DC43369718C05CC0D9BFBA87D84319C3C7
:10197000E37DE4FE94433386D700631F8600104066
:10198000B29694C33386D700E31DC7FA1043584379
:10199000B29694C3D8C375B76375C400B1479CC0F1
:1019A0004DB71040B306C4006316D7001443584324
:1019B000B29614C058C0C0C369B78280011126CA4C
:1019C00093843500F19806CE22CC4AC84EC6A104B5
:1019D000B14763F3F404B14463E2B4042A89EF002D
:1019E000D0139387418298433A8439E09387818268
:1019F0009C4391E781454A850D2F23A4A182A685AA
:101A00004A852527FD5963193507B1472320F90079
:101A10004A85EF00B01029A0E3D004FCB1471CC1F7
:101A20000145F2406244D2444249B2490561828094
:101A30001C40858F63CF0702AD4663F6F6001CC0DD
:101A40003E9404C031A05C406313870223A2F1825C
:101A50004A85EF00B00C1305B40093074400619968
:101A60003307F5405DDF3A94898F1CC05DBF5CC3CE
:101A7000C5B72287404095BF130435007198E30233
:101A800085FCB305A4404A854D25E31C35FBB5BF55
:101A90001C46FD171CC663DA0700184E63C5E70035
:101AA000A9476394F5006FF09F811C422E85138730
:101AB000170018C28CA38280011122CC26CA4AC802
:101AC0004EC652C406CE2A89AE893284B304D600EB
:101AD0007D5A63149400014501A80C204E864A8566
:101AE000453F0504E31745FFF2406244D2444249B2
:101AF000B249224A05618280357122CD26CB4AC97E
:101B00004EC706CF52C556C35AC1DEDEE2DCE6DA66
:101B1000AA89AE843289368409C51C4D99E3EFF059
:101B20003FBA97170000938727C06397F40C83A4EC
:101B30004900DE24A18BFDC39C48EDC3930700023E
:101B4000A304F1029307000302D22305F10222C687
:101B5000930B5002971A0000938A0AC1054C294B37
:101B60004A841C2099C3639E770DB30C2441638D76
:101B70000C00E6864A86A6854E853D3FFD57630FDD
:101B8000F51C9256E69636D21C206389071CFD5739
:101B90001309140002C802CE3ECA02CCA3090104F4
:101BA00082D48345090015465685A12F13041900D8
:101BB000C24751E913F7070109C713070002A30938
:101BC000E10413F7870009C71307B002A309E10472
:101BD000834609001307A002638FE606F2474A8492
:101BE00081462546182093051400130707FD6377E7
:101BF000E60AB5CA3ECE85A8971700009387C7B4FA
:101C00006395F40083A489002DB79717000093878C
:101C1000A7AFE390F4F283A4C90021BFA6854E8547
:101C2000EFF0AFF501DD7D55FA406A44DA444A49E8
:101C3000BA492A4A9A4A0A4BF65B665CD65C0D6141
:101C40008280050439BF330555413315AC00C98F77
:101C50003EC82289B9B7324793064700184336C6B3
:101C6000634707023ACE18209307E002631DF7048A
:101C700018309307A002631BF702B24709041387C9
:101C800047009C433AC663C107023ECA2DA83307EA
:101C9000E04093E727003ACE3EC8F1B7B387670329
:101CA00085462E84BA973DBFFD57C5B7050402CAC5
:101CB000814681472546182093051400130707FD28
:101CC0006374E606F9F20C200D46171500001305A3
:101CD00025AA052D11CD97170000938767A91D8DA3
:101CE00093070004B397A700424505045D8D2AC8F9
:101CF0000C201946171500001305C5A71309140079
:101D00002304B102FD2B35C197E7FFFF9387872F8F
:101D100095E74247B2471377071009CF91073EC6B0
:101D20009257D2973ED22DBDB387670385462E8446
:101D3000BA9751B79D07E19BA107D5B778009706E1
:101D400000009386A6D726860C084E8597000000D3
:101D5000E7000000FD572A8AE314F5FCDE2493F720
:101D60000704E39207EC1255C1B57800970600000E
:101D70009386C6D426860C084E85012AE1BF797168
:101D800056CA9C49BA8A984522D426D24ECE52CC05
:101D900006D64AD05AC85EC6AA892E84B284368A2C
:101DA00063D3E700BA879CC00347340419C385078F
:101DB0009CC01C4093F7070281C79C4089079CC0C8
:101DC0000329040013796900631A0900130B9401B5
:101DD000FD5B5C449840998F634CF9041C4083463A
:101DE000340493F70702B336D000A5EB130634048E
:101DF000D2854E85829AFD576303F5041C40114637
:101E00009840998B544481446397C700B384E6405B
:101E100063D3040081441C4418486354F700998F2D
:101E2000BE94014969047D5B63982405014509A8B6
:101E300085465A86D2854E85829A631E75017D55E8
:101E4000B250225492540259F249624AD24A424B49
:101E5000B24B456182800509ADBF3307D40013063C
:101E60000003A301C7040347540493871600A297F5
:101E70008906A381E7049DBF85462286D2854E85CB
:101E8000829AE30E65FB050945B7797122D426D203
:101E90004AD04ECE06D652CC56CA5AC8B689942DD0
:101EA000930790063289AA842E8413863504638DA5
:101EB000F60263E2D706930780056385F61863EDA3
:101EC000D700638D062093073004638EF60A930AC9
:101ED00024042301D404C9A0930730066385F60ABD
:101EE00093074006E395F6FE1C40084393F6070867
:101EF00093054500C5C61C410CC363D807001307F2
:101F0000D002B307F040A301E404971600009386C3
:101F1000E686294765A8930700076381F61663E5FF
:101F2000D7029307E0066388F6189307F006E3905C
:101F3000F6FA0C401C4313F80508138547006307A5
:101F4000080608C39C4385A893075007E383F6FE61
:101F5000930780076388F61293073007E399F6F634
:101F60001C43D04181459386470014C383AA0700D0
:101F70005685412E01C53305554148C05C401CC8FB
:101F8000A301040461A81C43930A24049386470018
:101F90009C4314C32301F4048547D5B793F6070483
:101FA0001C410CC3B9DAC207C18781BF93F5050490
:101FB00008C3C9D99E231307F0066386E60E970669
:101FC00000009386A67B2947A30104044C400CC45F
:101FD00063C5050008406D9908C099E3B28A89CDB0
:101FE000B28AB3F5E702FD1AB6958C212380BA00B8
:101FF000B3D5E70263FFE70AA147631EF7001C4061
:10200000858B91CB58401C4863C7E70093070003BA
:10201000A38FFAFEFD1A3306564110C84E87CA86B2
:102020007000A2852685A13B7D5A631D450B7D5519
:10203000B250225492540259F249624AD24A424B57
:1020400045618280A382D5049706000093860673BB
:102050000C40084313F805081C411105630D0802E4
:1020600008C313F7150001C793E505020CC04147EB
:10207000A1FF0C4093F5F5FD0CC0B9B79C4193E767
:1020800007029CC193078007A302F404970600008F
:102090009386067075BF13F8050408C3E30308FCB4
:1020A000C207C1837DBF970600009386266D214736
:1020B00021BFAE873DB794411C43CC4913F80608B5
:1020C000138547006306080008C39C438CC339A0EE
:1020D00008C393F606049C43F5DA8EA32328040074
:1020E000B28A2DBF14485686CA8526858299E30098
:1020F00045F51C40898B8DE7B2474844E35AF5F219
:102100003E853DB785465686CA8526858299E30079
:1021100065F3050A5C443247998FE345FAFEE9BF4F
:10212000014A930A94017D5BF5B7411122C42A84C8
:102130002E8597F7FF1F23A5077E06C6EFF0AF8316
:10214000FD576319F50097F7FF1F9387677D9C4341
:1021500091C31CC0B240224441018280411122C47B
:102160002E848395E50006C65D2A634905007C48F8
:10217000AA977CC8B2402244410182805E247D77C8
:102180007D17F98F5EA4FDB7DE25011122CC26CA8A
:102190004AC84EC606CE93F70710AA842E84328909
:1021A000B68991C78395E500894601460D225E24D4
:1021B0007D777D17F98F5EA48315E4006244F240B9
:1021C000CE864A86B24942492685D244056125A871
:1021D000411122C42E848395E50006C6CD28FD5703
:1021E0005A24631AF500FD77FD17F98F5EA4B240FB
:1021F0002244410182808567D98F5EA468C8C5BF2B
:102200008395E50025A8411122C42A842E85B28534
:10221000368697F7FF1F23A5077006C6EFE01FF26B
:10222000FD576319F50097F7FF1F9387676F9C436E
:1022300091C31CC0B240224441018280411122C49A
:102240002A842E8597F7FF1F23AC076C06C6112240
:10225000FD576319F50097F7FF1F9387676C9C4341
:1022600091C31CC0B240224441018280411122C46A
:102270002A842E85B28597F7FF1F23A3076A06C617
:10228000CD20FD576319F50097F7FF1F9387476926
:102290009C4391C31CC0B240224441018280411141
:1022A00022C42A842E8597F7FF1F23AB076606C634
:1022B000C920FD576319F50097F7FF1F93874766FD
:1022C0009C4391C31CC0B240224441018280411111
:1022D00022C42A842E85B285368697F7FF1F23A154
:1022E000076406C67928FD576319F50097F7FF1FA5
:1022F000938707639C4391C31CC0B24022444101B1
:10230000828093F5F50F2A966314C50001458280FB
:102310001C21E38EB7FE0505C5BF82808280411176
:1023200022C42A842E85B285368697F7FF1F23A9FB
:10233000075E06C6B928FD576319F50097F7FF1F1A
:102340009387075E9C4391C31CC0B2402244410165
:1023500082809307800517F7FF1F2323F75C7D55C5
:1023600082809307800517F7FF1F232BF75A7D55AF
:1023700082809307800517F7FF1F2323F75A014533
:1023800082809307800517F7FF1F232BF7587D5591
:1023900082809307800517F7FF1F2323F7587D5589
:1023A00082800000000000170203010A1F0A1F0AB2
:1023B00016151F150D130B041A190817150A10030B
:1023C0000E11110E150E0E15040E0410080404044F
:1023D00018181804031F111F111F101D15171515AC
:1023E0000A07041F17151D1F151D07011F1F151FA5
:1023F00017151F0A100A040A110A0A0A110A040111
:1024000015060209151D110E1E09091E1F15150AB4
:102410000E11110A1F11110E1F1515111F050501AF
:102420000E11150D1F04041F111F110810110F1F8D
:10243000040A111F1010101F030C031F1F020C1F92
:102440000E11110E1F0505020E1109161F050D12A2
:1024500012151509011F010F10100F0F1008070F9B
:10246000100E100F1B04041B01021C020111191590
:10247000131F11090A1C0A09111F02010210101072
:1024800001020C121E101F1414080C121212081450
:10249000141F0C1A1A14081C0A0810141A0C1F0412
:1024A0000418141D1008100D1F081412011F101E0F
:1024B000021C021C1E02021C0C12120C1E0A0A0430
:1024C000040A0A1E1C02021416160A040E14140E24
:1024D00010101E0E1008060E100C100E120C0C120E
:1024E00012140806121A1612041B111B111B0402E7
:1024F00001020100000000000000000000000000D8
:1025000000000000000000000000000000000000CB
:1025100000000000000000000000000000000000BB
:1025200000000000000000000000000000000000AB
:10253000000000000000000000000000000000009B
:10254000000000000000000000000000000000008B
:10255000000000000000000000000000000000007B
:10256000000000000000000000000000000000006B
:10257000000000000000000000000000000000005B
:10258000000000000000000000000000000000004B
:10259000000000000000000000000000000000003B
:1025A000000000000000000000000000000000002B
:1025B000000000000000000000000000000000001B
:1025C00000000000030103050505050102020403E4
:1025D00002030203030303030303030303030102D0
:1025E00003030303060404040404040404030404AE
:1025F000040504040404040403040405040504029B
:102600000502030302040404040404040403030491
:10261000030504040404030404040405040404037B
:102620000103040000081018202830384005060770
:102630002D360109111921293139410D0E0F353E71
:10264000020A121A222A323A421516173D2F030B9C
:10265000131B232B333B431D1E1F4537040C141C37
:10266000242C343C442526272E3F000053797374D4
:10267000656D436C6B3A25640D0A00004368697010
:1026800049443A253038780D0A0000004750494F38
:1026900020546F67676C6520544553540D0000004B
:1026A00049494320486F7374206D6F64650D0000C5
:1026B000493243204C454420446973706C61792051
:1026C00044454D4F0000000020202043483332563F
:1026D00032303320524953432D56204D435500008C
:1026E000202B2049533331464C3337333120436854
:1026F00061726C6965506C6578204D61747269789F
:1027000020000000000000000000000000000000A9
:1027100000000000000000000000000000000000B9
:1027200000000000000000000000000000000000A9
:102730000000000000000000000000000000000099
:102740000000000000000000000000000000000089
:102750000000000000000000000000000000000079
:1027600000000000232D302B20000000686C4C007E
:1027700065666745464700003031323334353637B9
:10278000383941424344454600000000303132337D
:10279000343536373839616263646566000000009D
:1027A0000000000000000000010203040607080901
:1027B00000000000010203040102030406070809E7
:1027C0000000000024270000442700000427000028
:1027D00000000000000000000000000000000000F9
:1027E00000000000000000000000000000000000E9
:1027F00000000000000000000000000000000000D9
:1028000000000000000000000000000000000000C8
:1028100000000000000000000000000000000000B8
:10282000006CDC02020406082019002020000020B1
:08283000200000200000000060
:00000001FF
